:020000020000FC
:020000003DC2FF
:040004000C94030352
:10020000F89407B1007C07B908B10F6308B90AB1C7
:100210000F730AB90BB1006C0BB904B10F6204B9CA
:1002200001E50CBD2A982998289808951F930F93EB
:1002300016B109B11F73007C012B602E0F911F9125
:100240000895FF92FFB68EBC07D07EBC05D02A9AD7
:100250002A98FFBEFF9008950F930DB507FBEEF7A8
:100260000F910895FF92FFB60F93082F83700C70C3
:1002700002950695802B0F91FFBEFF900895FF9287
:10028000FFB60F93082F80E4003039F080E202308F
:1002900021F082E0013009F081E00F91FFBEFF9074
:1002A000089501030002020003010F93F2E0E2EA65
:1002B000E80F84910F9108950F93F2E0E6EAE80FBA
:1002C00084910F9108950F93809583700F910895F5
:1002D0000F93D5DF082F862FC5DF80230F91089558
:1002E000EBDFF6DF0895E1DFF3DF08950509090983
:1002F0001909010305090909090909092909090257
:100300000C09090305090A0606050909093909093D
:100310000305030605090B060605090A360C09093B
:100320000909010B0C0A0606060D090A0606050353
:100330000C09030509090A05090908020625090926
:100340000A06060C09090A0C090903460509090AE7
:10035000060C030509021605090909090903060621
:100360000C03050306050A0C030606060501030532
:1003700003060606053A0606060C090306060C02E5
:1003800006060606060C1206060502060607050AFC
:100390000E0C0902060606060C090A060C0A0606D9
:1003A00006060C09090909080206360C090909089C
:1003B000190306060C0809090909010306060C09B8
:1003C00009030D0903060606052109090B07460660
:1003D000060C09090304090102060606060C0909B0
:1003E00009020606060D09090A0C0306060606069A
:1003F00006050909090A060C0A0509090903061672
:1004000006060606060C090909030409090A05235C
:10041000050A060606060606040909390908020542
:100420000103060606050A0E06060606060D09095C
:1004300009090A0606060606060605090A0606064C
:10044000061D09090909090A060606062E0E0605F3
:10045000090A060604090909090909090A0C0A0614
:1004600005090A060D090A060409090929090909E5
:1004700009090908080909280909090A0FEF0DBF28
:1004800008E00EBF0E940001E89810911D001E7F39
:10049000126010936900E89A0BE0009385000CED60
:1004A0000093840013E010938100882477240027B0
:1004B00000930101009300010093030100930201E6
:1004C000009305010093060104E10093040103E099
:1004D000559A52985A9878940E941601062D0370E6
:1004E0000093010130910201303041F4809100010C
:1004F000B9DE782E31E03093020146C0313089F404
:1005000080910001AFDE782E80910101B8DE782A5B
:1005100010910301112330E009F032E03093020121
:1005200033C0323039F510E010930301809100019F
:1005300040910101809104016091050143D06093D5
:100540000501809304014CD0682F607F6295609311
:1005500006018F7080930001782E8091000182DE69
:10056000782E33E0309302018F3F09F031E0309371
:1005700002010AC0333041F432E0309302018F3F70
:1005800019F030E03093020131FB81F830FB80F844
:10059000609106018091000140D049D004D00FD075
:1005A0000E94210199CF0F93B09BFECFB09A0BE030
:1005B000009385000CED009384000F9108955D98E1
:1005C0005D9A089540FB36F041FB16F0839507C015
:1005D0006A9505C041FB16F0639501C08A950895A0
:1005E0000F932F92FF93EF93ECEEF2E0222404E1BD
:1005F000809F121C860FE00DF11D8491EF91FF91F9
:100600002F900F910895FF92FFB60F930FEF009375
:1006100003010F91FFBEFF901895662321F4693006
:1006200021F0663011F080E001C08FEF08950F9344
:10063000082D882319F400610F7D02C000620F7E2F
:06064000802E0F910895C9
:00000001FF
